{"abi":[{"type":"constructor","inputs":[{"name":"_token0","type":"address","internalType":"address"},{"name":"_token1","type":"address","internalType":"address"},{"name":"_pool","type":"address","internalType":"address"}],"stateMutability":"nonpayable"},{"type":"receive","stateMutability":"payable"},{"type":"function","name":"algebraMintCallback","inputs":[{"name":"amount0Owed","type":"uint256","internalType":"uint256"},{"name":"amount1Owed","type":"uint256","internalType":"uint256"},{"name":"","type":"bytes","internalType":"bytes"}],"outputs":[],"stateMutability":"nonpayable"},{"type":"function","name":"owner","inputs":[],"outputs":[{"name":"","type":"address","internalType":"address"}],"stateMutability":"view"},{"type":"function","name":"pool","inputs":[],"outputs":[{"name":"","type":"address","internalType":"address"}],"stateMutability":"view"},{"type":"function","name":"provideLiquidity","inputs":[{"name":"recipient","type":"address","internalType":"address"},{"name":"bottomTick","type":"int24","internalType":"int24"},{"name":"topTick","type":"int24","internalType":"int24"},{"name":"liquidityDesired","type":"uint128","internalType":"uint128"},{"name":"data","type":"bytes","internalType":"bytes"}],"outputs":[],"stateMutability":"nonpayable"},{"type":"function","name":"renounceOwnership","inputs":[],"outputs":[],"stateMutability":"nonpayable"},{"type":"function","name":"token0","inputs":[],"outputs":[{"name":"","type":"address","internalType":"address"}],"stateMutability":"view"},{"type":"function","name":"token1","inputs":[],"outputs":[{"name":"","type":"address","internalType":"address"}],"stateMutability":"view"},{"type":"function","name":"transferOwnership","inputs":[{"name":"newOwner","type":"address","internalType":"address"}],"outputs":[],"stateMutability":"nonpayable"},{"type":"function","name":"withdrawLiquidity","inputs":[{"name":"recipient","type":"address","internalType":"address"},{"name":"bottomTick","type":"int24","internalType":"int24"},{"name":"topTick","type":"int24","internalType":"int24"},{"name":"liquidity","type":"uint128","internalType":"uint128"},{"name":"amount0Min","type":"uint256","internalType":"uint256"},{"name":"amount1Min","type":"uint256","internalType":"uint256"}],"outputs":[],"stateMutability":"nonpayable"},{"type":"function","name":"withdrawNative","inputs":[],"outputs":[],"stateMutability":"nonpayable"},{"type":"function","name":"withdrawToken","inputs":[{"name":"token","type":"address","internalType":"address"},{"name":"amount","type":"uint256","internalType":"uint256"}],"outputs":[],"stateMutability":"nonpayable"},{"type":"event","name":"OwnershipTransferred","inputs":[{"name":"previousOwner","type":"address","indexed":true,"internalType":"address"},{"name":"newOwner","type":"address","indexed":true,"internalType":"address"}],"anonymous":false},{"type":"error","name":"OwnableInvalidOwner","inputs":[{"name":"owner","type":"address","internalType":"address"}]},{"type":"error","name":"OwnableUnauthorizedAccount","inputs":[{"name":"account","type":"address","internalType":"address"}]}],"bytecode":{"object":"0x60e060405234801561000f575f80fd5b50604051610e41380380610e4183398101604081905261002e9161010a565b338061005357604051631e4fbdf760e01b81525f600482015260240160405180910390fd5b61005c816100a0565b50816001600160a01b0316836001600160a01b03161061007d578183610080565b82825b6001600160a01b0390811660a0529081166080521660c0525061014a9050565b5f80546001600160a01b038381166001600160a01b0319831681178455604051919092169283917f8be0079c531659141344cd1fd0a4f28419497f9722a3daafe3b4186f6b6457e09190a35050565b80516001600160a01b0381168114610105575f80fd5b919050565b5f805f6060848603121561011c575f80fd5b610125846100ef565b9250610133602085016100ef565b9150610141604085016100ef565b90509250925092565b60805160a05160c051610ca461019d5f395f8181610108015281816102490152818161047101528181610529015261068801525f81816101fd01526102ef01525f818160b901526102be0152610ca45ff3fe60806040526004361061009d575f3560e01c80636d5e3d4a116100625780636d5e3d4a1461017e578063715018a61461019d5780638da5cb5b146101b15780639e281a98146101cd578063d21220a7146101ec578063f2fde38b1461021f575f80fd5b80630dfe1681146100a857806316f0115b146100f75780633dd657c51461012a57806350431ce41461014b578063598f81271461015f575f80fd5b366100a457005b5f80fd5b3480156100b3575f80fd5b506100db7f000000000000000000000000000000000000000000000000000000000000000081565b6040516001600160a01b03909116815260200160405180910390f35b348015610102575f80fd5b506100db7f000000000000000000000000000000000000000000000000000000000000000081565b348015610135575f80fd5b50610149610144366004610942565b61023e565b005b348015610156575f80fd5b5061014961031b565b34801561016a575f80fd5b506101496101793660046109d1565b61041f565b348015610189575f80fd5b50610149610198366004610a35565b610669565b3480156101a8575f80fd5b50610149610714565b3480156101bc575f80fd5b505f546001600160a01b03166100db565b3480156101d8575f80fd5b506101496101e7366004610ab8565b610727565b3480156101f7575f80fd5b506100db7f000000000000000000000000000000000000000000000000000000000000000081565b34801561022a575f80fd5b50610149610239366004610ae0565b61074a565b336001600160a01b037f000000000000000000000000000000000000000000000000000000000000000016146102b35760405162461bcd60e51b8152602060048201526015602482015274556e617574686f72697a65642063616c6c6261636b60581b60448201526064015b60405180910390fd5b83156102e4576102e47f00000000000000000000000000000000000000000000000000000000000000003386610787565b8215610315576103157f00000000000000000000000000000000000000000000000000000000000000003385610787565b50505050565b610323610882565b47806103715760405162461bcd60e51b815260206004820152601e60248201527f4e6f206e61746976652063757272656e637920746f207769746864726177000060448201526064016102aa565b5f80546040516001600160a01b039091169083908381818185875af1925050503d805f81146103bb576040519150601f19603f3d011682016040523d82523d5f602084013e6103c0565b606091505b505090508061041b5760405162461bcd60e51b815260206004820152602160248201527f4e61746976652063757272656e6379207769746864726177616c206661696c656044820152601960fa1b60648201526084016102aa565b5050565b610427610882565b604051631d9de38760e11b8152600286810b600483015285900b60248201526001600160801b0384166044820152608060648201525f608482018190529081906001600160a01b037f00000000000000000000000000000000000000000000000000000000000000001690633b3bc70e9060a40160408051808303815f875af11580156104b6573d5f803e3d5ffd5b505050506040513d601f19601f820116820180604052508101906104da9190610b00565b6040516309e3d67b60e31b81526001600160a01b038b8116600483015260028b810b60248401528a900b60448301526001600160801b036064830181905260848301529294509092505f9182917f000000000000000000000000000000000000000000000000000000000000000090911690634f1eb3d89060a40160408051808303815f875af1158015610570573d5f803e3d5ffd5b505050506040513d601f19601f820116820180604052508101906105949190610b22565b9092509050856105ad6001600160801b03841686610b5a565b10156105fb5760405162461bcd60e51b815260206004820152601a60248201527f496e73756666696369656e7420746f6b656e3020616d6f756e7400000000000060448201526064016102aa565b8461060f6001600160801b03831685610b5a565b101561065d5760405162461bcd60e51b815260206004820152601a60248201527f496e73756666696369656e7420746f6b656e3120616d6f756e7400000000000060448201526064016102aa565b50505050505050505050565b610671610882565b6040516302abf8a760e61b81526001600160a01b037f0000000000000000000000000000000000000000000000000000000000000000169063aafe29c0906106c99030908a908a908a908a908a908a90600401610b7f565b6060604051808303815f875af11580156106e5573d5f803e3d5ffd5b505050506040513d601f19601f820116820180604052508101906107099190610bed565b505050505050505050565b61071c610882565b6107255f6108ae565b565b61072f610882565b61041b826107445f546001600160a01b031690565b83610787565b610752610882565b6001600160a01b03811661077b57604051631e4fbdf760e01b81525f60048201526024016102aa565b610784816108ae565b50565b604080516001600160a01b038481166024830152604480830185905283518084039091018152606490920183526020820180516001600160e01b031663a9059cbb60e01b17905291515f928392908716916107e29190610c23565b5f604051808303815f865af19150503d805f811461081b576040519150601f19603f3d011682016040523d82523d5f602084013e610820565b606091505b509150915081801561084a57508051158061084a57508080602001905181019061084a9190610c4f565b61087b5760405162461bcd60e51b815260206004820152600260248201526114d560f21b60448201526064016102aa565b5050505050565b5f546001600160a01b031633146107255760405163118cdaa760e01b81523360048201526024016102aa565b5f80546001600160a01b038381166001600160a01b0319831681178455604051919092169283917f8be0079c531659141344cd1fd0a4f28419497f9722a3daafe3b4186f6b6457e09190a35050565b5f8083601f84011261090d575f80fd5b50813567ffffffffffffffff811115610924575f80fd5b60208301915083602082850101111561093b575f80fd5b9250929050565b5f805f8060608587031215610955575f80fd5b8435935060208501359250604085013567ffffffffffffffff811115610979575f80fd5b610985878288016108fd565b95989497509550505050565b80356001600160a01b03811681146109a7575f80fd5b919050565b8035600281900b81146109a7575f80fd5b6001600160801b0381168114610784575f80fd5b5f805f805f8060c087890312156109e6575f80fd5b6109ef87610991565b95506109fd602088016109ac565b9450610a0b604088016109ac565b93506060870135610a1b816109bd565b9598949750929560808101359460a0909101359350915050565b5f805f805f8060a08789031215610a4a575f80fd5b610a5387610991565b9550610a61602088016109ac565b9450610a6f604088016109ac565b93506060870135610a7f816109bd565b9250608087013567ffffffffffffffff811115610a9a575f80fd5b610aa689828a016108fd565b979a9699509497509295939492505050565b5f8060408385031215610ac9575f80fd5b610ad283610991565b946020939093013593505050565b5f60208284031215610af0575f80fd5b610af982610991565b9392505050565b5f8060408385031215610b11575f80fd5b505080516020909101519092909150565b5f8060408385031215610b33575f80fd5b8251610b3e816109bd565b6020840151909250610b4f816109bd565b809150509250929050565b80820180821115610b7957634e487b7160e01b5f52601160045260245ffd5b92915050565b6001600160a01b03888116825287166020820152600286810b604083015285900b60608201526001600160801b038416608082015260c060a0820181905281018290525f828460e08401375f60e0848401015260e0601f19601f850116830101905098975050505050505050565b5f805f60608486031215610bff575f80fd5b83519250602084015191506040840151610c18816109bd565b809150509250925092565b5f82515f5b81811015610c425760208186018101518583015201610c28565b505f920191825250919050565b5f60208284031215610c5f575f80fd5b81518015158114610af9575f80fdfea26469706673582212201bb1e07bce9cda74a95b197e7354f3fbb2904ef209ffce1ce8c068ac92c1593764736f6c63430008150033","linkReferences":{}},"methodIdentifiers":{"algebraMintCallback(uint256,uint256,bytes)":"3dd657c5","owner()":"8da5cb5b","pool()":"16f0115b","provideLiquidity(address,int24,int24,uint128,bytes)":"6d5e3d4a","renounceOwnership()":"715018a6","token0()":"0dfe1681","token1()":"d21220a7","transferOwnership(address)":"f2fde38b","withdrawLiquidity(address,int24,int24,uint128,uint256,uint256)":"598f8127","withdrawNative()":"50431ce4","withdrawToken(address,uint256)":"9e281a98"},"id":26}