{"abi":[{"type":"constructor","inputs":[{"name":"_token0","type":"address","internalType":"address"},{"name":"_token1","type":"address","internalType":"address"},{"name":"_pool","type":"address","internalType":"address"}],"stateMutability":"nonpayable"},{"type":"receive","stateMutability":"payable"},{"type":"function","name":"algebraMintCallback","inputs":[{"name":"amount0Owed","type":"uint256","internalType":"uint256"},{"name":"amount1Owed","type":"uint256","internalType":"uint256"},{"name":"","type":"bytes","internalType":"bytes"}],"outputs":[],"stateMutability":"nonpayable"},{"type":"function","name":"changeTokensAndPool","inputs":[{"name":"newToken0","type":"address","internalType":"address"},{"name":"newToken1","type":"address","internalType":"address"},{"name":"newPool","type":"address","internalType":"address"}],"outputs":[],"stateMutability":"nonpayable"},{"type":"function","name":"owner","inputs":[],"outputs":[{"name":"","type":"address","internalType":"address"}],"stateMutability":"view"},{"type":"function","name":"pool","inputs":[],"outputs":[{"name":"","type":"address","internalType":"address"}],"stateMutability":"view"},{"type":"function","name":"provideLiquidity","inputs":[{"name":"recipient","type":"address","internalType":"address"},{"name":"bottomTick","type":"int24","internalType":"int24"},{"name":"topTick","type":"int24","internalType":"int24"},{"name":"liquidityDesired","type":"uint128","internalType":"uint128"},{"name":"data","type":"bytes","internalType":"bytes"}],"outputs":[],"stateMutability":"nonpayable"},{"type":"function","name":"renounceOwnership","inputs":[],"outputs":[],"stateMutability":"nonpayable"},{"type":"function","name":"token0","inputs":[],"outputs":[{"name":"","type":"address","internalType":"address"}],"stateMutability":"view"},{"type":"function","name":"token1","inputs":[],"outputs":[{"name":"","type":"address","internalType":"address"}],"stateMutability":"view"},{"type":"function","name":"transferOwnership","inputs":[{"name":"newOwner","type":"address","internalType":"address"}],"outputs":[],"stateMutability":"nonpayable"},{"type":"function","name":"withdrawLiquidity","inputs":[{"name":"recipient","type":"address","internalType":"address"},{"name":"bottomTick","type":"int24","internalType":"int24"},{"name":"topTick","type":"int24","internalType":"int24"},{"name":"liquidity","type":"uint128","internalType":"uint128"},{"name":"amount0Min","type":"uint256","internalType":"uint256"},{"name":"amount1Min","type":"uint256","internalType":"uint256"}],"outputs":[],"stateMutability":"nonpayable"},{"type":"function","name":"withdrawNative","inputs":[],"outputs":[],"stateMutability":"nonpayable"},{"type":"function","name":"withdrawToken","inputs":[{"name":"token","type":"address","internalType":"address"},{"name":"amount","type":"uint256","internalType":"uint256"}],"outputs":[],"stateMutability":"nonpayable"},{"type":"event","name":"OwnershipTransferred","inputs":[{"name":"previousOwner","type":"address","indexed":true,"internalType":"address"},{"name":"newOwner","type":"address","indexed":true,"internalType":"address"}],"anonymous":false},{"type":"error","name":"OwnableInvalidOwner","inputs":[{"name":"owner","type":"address","internalType":"address"}]},{"type":"error","name":"OwnableUnauthorizedAccount","inputs":[{"name":"account","type":"address","internalType":"address"}]}],"bytecode":{"object":"0x608060405234801561000f575f80fd5b50604051610e1f380380610e1f83398101604081905261002e91610130565b338061005357604051631e4fbdf760e01b81525f600482015260240160405180910390fd5b61005c816100c6565b50816001600160a01b0316836001600160a01b03161061007d578183610080565b82825b600280546001600160a01b03199081166001600160a01b039384161790915560018054821693831693909317909255600380549092169216919091179055506101709050565b5f80546001600160a01b038381166001600160a01b0319831681178455604051919092169283917f8be0079c531659141344cd1fd0a4f28419497f9722a3daafe3b4186f6b6457e09190a35050565b80516001600160a01b038116811461012b575f80fd5b919050565b5f805f60608486031215610142575f80fd5b61014b84610115565b925061015960208501610115565b915061016760408501610115565b90509250925092565b610ca28061017d5f395ff3fe6080604052600436106100a8575f3560e01c80636d5e3d4a116100625780636d5e3d4a14610180578063715018a61461019f5780638da5cb5b146101b35780639e281a98146101cf578063d21220a7146101ee578063f2fde38b1461020d575f80fd5b80630dfe1681146100b357806316f0115b146100ee5780631a38309a1461010d5780633dd657c51461012e57806350431ce41461014d578063598f812714610161575f80fd5b366100af57005b5f80fd5b3480156100be575f80fd5b506001546100d2906001600160a01b031681565b6040516001600160a01b03909116815260200160405180910390f35b3480156100f9575f80fd5b506003546100d2906001600160a01b031681565b348015610118575f80fd5b5061012c6101273660046108d6565b61022c565b005b348015610139575f80fd5b5061012c61014836600461095b565b610299565b348015610158575f80fd5b5061012c610330565b34801561016c575f80fd5b5061012c61017b3660046109cf565b610434565b34801561018b575f80fd5b5061012c61019a366004610a33565b610643565b3480156101aa575f80fd5b5061012c6106d2565b3480156101be575f80fd5b505f546001600160a01b03166100d2565b3480156101da575f80fd5b5061012c6101e9366004610ab6565b6106e5565b3480156101f9575f80fd5b506002546100d2906001600160a01b031681565b348015610218575f80fd5b5061012c610227366004610ade565b610708565b610234610745565b816001600160a01b0316836001600160a01b031610610254578183610257565b82825b600280546001600160a01b03199081166001600160a01b0393841617909155600180548216938316939093179092556003805490921692169190911790555050565b6003546001600160a01b031633146102f05760405162461bcd60e51b8152602060048201526015602482015274556e617574686f72697a65642063616c6c6261636b60581b60448201526064015b60405180910390fd5b831561030d5760015461030d906001600160a01b03163386610771565b821561032a5760025461032a906001600160a01b03163385610771565b50505050565b610338610745565b47806103865760405162461bcd60e51b815260206004820152601e60248201527f4e6f206e61746976652063757272656e637920746f207769746864726177000060448201526064016102e7565b5f80546040516001600160a01b039091169083908381818185875af1925050503d805f81146103d0576040519150601f19603f3d011682016040523d82523d5f602084013e6103d5565b606091505b50509050806104305760405162461bcd60e51b815260206004820152602160248201527f4e61746976652063757272656e6379207769746864726177616c206661696c656044820152601960fa1b60648201526084016102e7565b5050565b61043c610745565b600354604051631d9de38760e11b8152600287810b600483015286900b60248201526001600160801b0385166044820152608060648201525f608482018190529182916001600160a01b0390911690633b3bc70e9060a40160408051808303815f875af11580156104af573d5f803e3d5ffd5b505050506040513d601f19601f820116820180604052508101906104d39190610afe565b6003546040516309e3d67b60e31b81526001600160a01b038c8116600483015260028c810b60248401528b900b60448301526001600160801b036064830181905260848301529395509193505f928392911690634f1eb3d89060a40160408051808303815f875af115801561054a573d5f803e3d5ffd5b505050506040513d601f19601f8201168201806040525081019061056e9190610b20565b9092509050856105876001600160801b03841686610b58565b10156105d55760405162461bcd60e51b815260206004820152601a60248201527f496e73756666696369656e7420746f6b656e3020616d6f756e7400000000000060448201526064016102e7565b846105e96001600160801b03831685610b58565b10156106375760405162461bcd60e51b815260206004820152601a60248201527f496e73756666696369656e7420746f6b656e3120616d6f756e7400000000000060448201526064016102e7565b50505050505050505050565b61064b610745565b6003546040516302abf8a760e61b81526001600160a01b039091169063aafe29c0906106879030908a908a908a908a908a908a90600401610b7d565b6060604051808303815f875af11580156106a3573d5f803e3d5ffd5b505050506040513d601f19601f820116820180604052508101906106c79190610beb565b505050505050505050565b6106da610745565b6106e35f61086c565b565b6106ed610745565b610430826107025f546001600160a01b031690565b83610771565b610710610745565b6001600160a01b03811661073957604051631e4fbdf760e01b81525f60048201526024016102e7565b6107428161086c565b50565b5f546001600160a01b031633146106e35760405163118cdaa760e01b81523360048201526024016102e7565b604080516001600160a01b038481166024830152604480830185905283518084039091018152606490920183526020820180516001600160e01b031663a9059cbb60e01b17905291515f928392908716916107cc9190610c21565b5f604051808303815f865af19150503d805f8114610805576040519150601f19603f3d011682016040523d82523d5f602084013e61080a565b606091505b50915091508180156108345750805115806108345750808060200190518101906108349190610c4d565b6108655760405162461bcd60e51b815260206004820152600260248201526114d560f21b60448201526064016102e7565b5050505050565b5f80546001600160a01b038381166001600160a01b0319831681178455604051919092169283917f8be0079c531659141344cd1fd0a4f28419497f9722a3daafe3b4186f6b6457e09190a35050565b80356001600160a01b03811681146108d1575f80fd5b919050565b5f805f606084860312156108e8575f80fd5b6108f1846108bb565b92506108ff602085016108bb565b915061090d604085016108bb565b90509250925092565b5f8083601f840112610926575f80fd5b50813567ffffffffffffffff81111561093d575f80fd5b602083019150836020828501011115610954575f80fd5b9250929050565b5f805f806060858703121561096e575f80fd5b8435935060208501359250604085013567ffffffffffffffff811115610992575f80fd5b61099e87828801610916565b95989497509550505050565b8035600281900b81146108d1575f80fd5b6001600160801b0381168114610742575f80fd5b5f805f805f8060c087890312156109e4575f80fd5b6109ed876108bb565b95506109fb602088016109aa565b9450610a09604088016109aa565b93506060870135610a19816109bb565b9598949750929560808101359460a0909101359350915050565b5f805f805f8060a08789031215610a48575f80fd5b610a51876108bb565b9550610a5f602088016109aa565b9450610a6d604088016109aa565b93506060870135610a7d816109bb565b9250608087013567ffffffffffffffff811115610a98575f80fd5b610aa489828a01610916565b979a9699509497509295939492505050565b5f8060408385031215610ac7575f80fd5b610ad0836108bb565b946020939093013593505050565b5f60208284031215610aee575f80fd5b610af7826108bb565b9392505050565b5f8060408385031215610b0f575f80fd5b505080516020909101519092909150565b5f8060408385031215610b31575f80fd5b8251610b3c816109bb565b6020840151909250610b4d816109bb565b809150509250929050565b80820180821115610b7757634e487b7160e01b5f52601160045260245ffd5b92915050565b6001600160a01b03888116825287166020820152600286810b604083015285900b60608201526001600160801b038416608082015260c060a0820181905281018290525f828460e08401375f60e0848401015260e0601f19601f850116830101905098975050505050505050565b5f805f60608486031215610bfd575f80fd5b83519250602084015191506040840151610c16816109bb565b809150509250925092565b5f82515f5b81811015610c405760208186018101518583015201610c26565b505f920191825250919050565b5f60208284031215610c5d575f80fd5b81518015158114610af7575f80fdfea26469706673582212207688f2689b411dd09b2ffce54cf66034a12d938c5ccd0299cbdade79d60f6d3964736f6c63430008150033","linkReferences":{}},"methodIdentifiers":{"algebraMintCallback(uint256,uint256,bytes)":"3dd657c5","changeTokensAndPool(address,address,address)":"1a38309a","owner()":"8da5cb5b","pool()":"16f0115b","provideLiquidity(address,int24,int24,uint128,bytes)":"6d5e3d4a","renounceOwnership()":"715018a6","token0()":"0dfe1681","token1()":"d21220a7","transferOwnership(address)":"f2fde38b","withdrawLiquidity(address,int24,int24,uint128,uint256,uint256)":"598f8127","withdrawNative()":"50431ce4","withdrawToken(address,uint256)":"9e281a98"},"id":28}